:1000000075900090030020900B20912920924720AA
:10001000936580F23094067401119B80E930950657
:100020007402119B80E03096067403119B80D77494
:1000300004119B80D13094067405119B80C83095C3
:10004000067406119B80BF3096FD7407119B80B625
:100050007408119B80B03094067409119B80A730FE
:100060009506740A119B809E309606740B119B8036
:1000700095740C119B808F309406740D119B8086B3
:10008000309507740E119B020006309607740F110D
:100090009B0200067410119B02000693F580E42277
:1003000060DAF2EE66B6BE3EE0FEF69C9EFC8E7AA9
:00000001FF
